{
  "_format": "hh-sol-artifact-1",
  "contractName": "KYCRegistry_FarisAli",
  "sourceName": "contracts/KYCRegistry_FarisAli.sol",
  "abi": [
    {
      "inputs": [],
      "stateMutability": "nonpayable",
      "type": "constructor"
    },
    {
      "anonymous": false,
      "inputs": [
        {
          "indexed": true,
          "internalType": "address",
          "name": "requester",
          "type": "address"
        },
        {
          "indexed": false,
          "internalType": "string",
          "name": "approvedName",
          "type": "string"
        }
      ],
      "name": "KYCApproved",
      "type": "event"
    },
    {
      "anonymous": false,
      "inputs": [
        {
          "indexed": true,
          "internalType": "address",
          "name": "requester",
          "type": "address"
        },
        {
          "indexed": false,
          "internalType": "string",
          "name": "reason",
          "type": "string"
        }
      ],
      "name": "KYCRejected",
      "type": "event"
    },
    {
      "anonymous": false,
      "inputs": [
        {
          "indexed": true,
          "internalType": "address",
          "name": "requester",
          "type": "address"
        },
        {
          "indexed": false,
          "internalType": "string",
          "name": "fullName",
          "type": "string"
        },
        {
          "indexed": false,
          "internalType": "string",
          "name": "cnic",
          "type": "string"
        }
      ],
      "name": "KYCSubmitted",
      "type": "event"
    },
    {
      "inputs": [],
      "name": "admin",
      "outputs": [
        {
          "internalType": "address",
          "name": "",
          "type": "address"
        }
      ],
      "stateMutability": "view",
      "type": "function"
    },
    {
      "inputs": [
        {
          "internalType": "address",
          "name": "user",
          "type": "address"
        },
        {
          "internalType": "string",
          "name": "approvedName",
          "type": "string"
        }
      ],
      "name": "approveKYC",
      "outputs": [],
      "stateMutability": "nonpayable",
      "type": "function"
    },
    {
      "inputs": [
        {
          "internalType": "address",
          "name": "user",
          "type": "address"
        }
      ],
      "name": "getKYC",
      "outputs": [
        {
          "internalType": "string",
          "name": "fullName",
          "type": "string"
        },
        {
          "internalType": "string",
          "name": "cnic",
          "type": "string"
        },
        {
          "internalType": "enum KYCRegistry_FarisAli.KYCStatus",
          "name": "status",
          "type": "uint8"
        }
      ],
      "stateMutability": "view",
      "type": "function"
    },
    {
      "inputs": [],
      "name": "getRequesters",
      "outputs": [
        {
          "internalType": "address[]",
          "name": "",
          "type": "address[]"
        }
      ],
      "stateMutability": "view",
      "type": "function"
    },
    {
      "inputs": [
        {
          "internalType": "address",
          "name": "user",
          "type": "address"
        }
      ],
      "name": "isApproved",
      "outputs": [
        {
          "internalType": "bool",
          "name": "",
          "type": "bool"
        }
      ],
      "stateMutability": "view",
      "type": "function"
    },
    {
      "inputs": [
        {
          "internalType": "address",
          "name": "user",
          "type": "address"
        },
        {
          "internalType": "string",
          "name": "reason",
          "type": "string"
        }
      ],
      "name": "rejectKYC",
      "outputs": [],
      "stateMutability": "nonpayable",
      "type": "function"
    },
    {
      "inputs": [
        {
          "internalType": "uint256",
          "name": "",
          "type": "uint256"
        }
      ],
      "name": "requesters",
      "outputs": [
        {
          "internalType": "address",
          "name": "",
          "type": "address"
        }
      ],
      "stateMutability": "view",
      "type": "function"
    },
    {
      "inputs": [
        {
          "internalType": "address",
          "name": "",
          "type": "address"
        }
      ],
      "name": "requests",
      "outputs": [
        {
          "internalType": "string",
          "name": "fullName",
          "type": "string"
        },
        {
          "internalType": "string",
          "name": "cnic",
          "type": "string"
        },
        {
          "internalType": "enum KYCRegistry_FarisAli.KYCStatus",
          "name": "status",
          "type": "uint8"
        },
        {
          "internalType": "address",
          "name": "requester",
          "type": "address"
        }
      ],
      "stateMutability": "view",
      "type": "function"
    },
    {
      "inputs": [
        {
          "internalType": "string",
          "name": "fullName",
          "type": "string"
        },
        {
          "internalType": "string",
          "name": "cnic",
          "type": "string"
        }
      ],
      "name": "submitKYC",
      "outputs": [],
      "stateMutability": "nonpayable",
      "type": "function"
    }
  ],
  "bytecode": "0x608060405234801561001057600080fd5b50336000806101000a81548173ffffffffffffffffffffffffffffffffffffffff021916908373ffffffffffffffffffffffffffffffffffffffff1602179055506119da806100606000396000f3fe608060405234801561001057600080fd5b50600436106100935760003560e01c8063673448dd11610066578063673448dd1461013257806374adad1d14610162578063bd551e6e14610195578063cb0830a3146101b1578063f851a440146101cf57610093565b80630c67059514610098578063238b651c146100b45780634d1a687d146100d05780635e1a6c1714610102575b600080fd5b6100b260048036038101906100ad9190610ec3565b6101ed565b005b6100ce60048036038101906100c99190610fa2565b610595565b005b6100ea60048036038101906100e59190611002565b610799565b6040516100f993929190611136565b60405180910390f35b61011c600480360381019061011791906111b1565b610920565b60405161012991906111ed565b60405180910390f35b61014c60048036038101906101479190611002565b61095f565b6040516101599190611223565b60405180910390f35b61017c60048036038101906101779190611002565b6109df565b60405161018c949392919061123e565b60405180910390f35b6101af60048036038101906101aa9190610fa2565b610b4c565b005b6101b9610da2565b6040516101c6919061134f565b60405180910390f35b6101d7610e30565b6040516101e491906111ed565b60405180910390f35b6000600160003373ffffffffffffffffffffffffffffffffffffffff1673ffffffffffffffffffffffffffffffffffffffff168152602001908152602001600020905060016003811115610244576102436110bf565b5b8160020160009054906101000a900460ff166003811115610268576102676110bf565b5b036102a8576040517f08c379a000000000000000000000000000000000000000000000000000000000815260040161029f906113bd565b60405180910390fd5b600260038111156102bc576102bb6110bf565b5b8160020160009054906101000a900460ff1660038111156102e0576102df6110bf565b5b03610320576040517f08c379a000000000000000000000000000000000000000000000000000000000815260040161031790611429565b60405180910390fd5b604051806080016040528086868080601f016020809104026020016040519081016040528093929190818152602001838380828437600081840152601f19601f82011690508083019250505050505050815260200184848080601f016020809104026020016040519081016040528093929190818152602001838380828437600081840152601f19601f820116905080830192505050505050508152602001600160038111156103d3576103d26110bf565b5b81526020013373ffffffffffffffffffffffffffffffffffffffff16815250600160003373ffffffffffffffffffffffffffffffffffffffff1673ffffffffffffffffffffffffffffffffffffffff16815260200190815260200160002060008201518160000190816104469190611684565b50602082015181600101908161045c9190611684565b5060408201518160020160006101000a81548160ff02191690836003811115610488576104876110bf565b5b021790555060608201518160020160016101000a81548173ffffffffffffffffffffffffffffffffffffffff021916908373ffffffffffffffffffffffffffffffffffffffff1602179055509050506002339080600181540180825580915050600190039060005260206000200160009091909190916101000a81548173ffffffffffffffffffffffffffffffffffffffff021916908373ffffffffffffffffffffffffffffffffffffffff1602179055503373ffffffffffffffffffffffffffffffffffffffff167f74aeb3a73c6cebe2ddfb681c384e0117cc8dd5e93900b3b1507dee33c2603841868686866040516105869493929190611792565b60405180910390a25050505050565b60008054906101000a900473ffffffffffffffffffffffffffffffffffffffff1673ffffffffffffffffffffffffffffffffffffffff163373ffffffffffffffffffffffffffffffffffffffff1614610623576040517f08c379a000000000000000000000000000000000000000000000000000000000815260040161061a90611819565b60405180910390fd5b60016003811115610637576106366110bf565b5b600160008573ffffffffffffffffffffffffffffffffffffffff1673ffffffffffffffffffffffffffffffffffffffff16815260200190815260200160002060020160009054906101000a900460ff166003811115610699576106986110bf565b5b146106d9576040517f08c379a00000000000000000000000000000000000000000000000000000000081526004016106d090611885565b60405180910390fd5b6003600160008573ffffffffffffffffffffffffffffffffffffffff1673ffffffffffffffffffffffffffffffffffffffff16815260200190815260200160002060020160006101000a81548160ff0219169083600381111561073f5761073e6110bf565b5b02179055508273ffffffffffffffffffffffffffffffffffffffff167f75f84e3d7c86754b3e5f8bc711d431d67ac0d2f50e92f0754c0552da79b49bfd838360405161078c9291906118a5565b60405180910390a2505050565b606080600080600160008673ffffffffffffffffffffffffffffffffffffffff1673ffffffffffffffffffffffffffffffffffffffff168152602001908152602001600020905080600001816001018260020160009054906101000a900460ff16828054610806906114a7565b80601f0160208091040260200160405190810160405280929190818152602001828054610832906114a7565b801561087f5780601f106108545761010080835404028352916020019161087f565b820191906000526020600020905b81548152906001019060200180831161086257829003601f168201915b50505050509250818054610892906114a7565b80601f01602080910402602001604051908101604052809291908181526020018280546108be906114a7565b801561090b5780601f106108e05761010080835404028352916020019161090b565b820191906000526020600020905b8154815290600101906020018083116108ee57829003601f168201915b50505050509150935093509350509193909250565b6002818154811061093057600080fd5b906000526020600020016000915054906101000a900473ffffffffffffffffffffffffffffffffffffffff1681565b600060026003811115610975576109746110bf565b5b600160008473ffffffffffffffffffffffffffffffffffffffff1673ffffffffffffffffffffffffffffffffffffffff16815260200190815260200160002060020160009054906101000a900460ff1660038111156109d7576109d66110bf565b5b149050919050565b6001602052806000526040600020600091509050806000018054610a02906114a7565b80601f0160208091040260200160405190810160405280929190818152602001828054610a2e906114a7565b8015610a7b5780601f10610a5057610100808354040283529160200191610a7b565b820191906000526020600020905b815481529060010190602001808311610a5e57829003601f168201915b505050505090806001018054610a90906114a7565b80601f0160208091040260200160405190810160405280929190818152602001828054610abc906114a7565b8015610b095780601f10610ade57610100808354040283529160200191610b09565b820191906000526020600020905b815481529060010190602001808311610aec57829003601f168201915b5050505050908060020160009054906101000a900460ff16908060020160019054906101000a900473ffffffffffffffffffffffffffffffffffffffff16905084565b60008054906101000a900473ffffffffffffffffffffffffffffffffffffffff1673ffffffffffffffffffffffffffffffffffffffff163373ffffffffffffffffffffffffffffffffffffffff1614610bda576040517f08c379a0000000000000000000000000000000000000000000000000000000008152600401610bd190611819565b60405180910390fd5b60016003811115610bee57610bed6110bf565b5b600160008573ffffffffffffffffffffffffffffffffffffffff1673ffffffffffffffffffffffffffffffffffffffff16815260200190815260200160002060020160009054906101000a900460ff166003811115610c5057610c4f6110bf565b5b14610c90576040517f08c379a0000000000000000000000000000000000000000000000000000000008152600401610c8790611885565b60405180910390fd5b6002600160008573ffffffffffffffffffffffffffffffffffffffff1673ffffffffffffffffffffffffffffffffffffffff16815260200190815260200160002060020160006101000a81548160ff02191690836003811115610cf657610cf56110bf565b5b02179055508181600160008673ffffffffffffffffffffffffffffffffffffffff1673ffffffffffffffffffffffffffffffffffffffff1681526020019081526020016000206000019182610d4c9291906118d4565b508273ffffffffffffffffffffffffffffffffffffffff167f9c6d0ea99590d55d418d15b343f2caf0db5bfde9be3a13389f316a0f736c44f58383604051610d959291906118a5565b60405180910390a2505050565b60606002805480602002602001604051908101604052809291908181526020018280548015610e2657602002820191906000526020600020905b8160009054906101000a900473ffffffffffffffffffffffffffffffffffffffff1673ffffffffffffffffffffffffffffffffffffffff1681526020019060010190808311610ddc575b5050505050905090565b60008054906101000a900473ffffffffffffffffffffffffffffffffffffffff1681565b600080fd5b600080fd5b600080fd5b600080fd5b600080fd5b60008083601f840112610e8357610e82610e5e565b5b8235905067ffffffffffffffff811115610ea057610e9f610e63565b5b602083019150836001820283011115610ebc57610ebb610e68565b5b9250929050565b60008060008060408587031215610edd57610edc610e54565b5b600085013567ffffffffffffffff811115610efb57610efa610e59565b5b610f0787828801610e6d565b9450945050602085013567ffffffffffffffff811115610f2a57610f29610e59565b5b610f3687828801610e6d565b925092505092959194509250565b600073ffffffffffffffffffffffffffffffffffffffff82169050919050565b6000610f6f82610f44565b9050919050565b610f7f81610f64565b8114610f8a57600080fd5b50565b600081359050610f9c81610f76565b92915050565b600080600060408486031215610fbb57610fba610e54565b5b6000610fc986828701610f8d565b935050602084013567ffffffffffffffff811115610fea57610fe9610e59565b5b610ff686828701610e6d565b92509250509250925092565b60006020828403121561101857611017610e54565b5b600061102684828501610f8d565b91505092915050565b600081519050919050565b600082825260208201905092915050565b60005b8381101561106957808201518184015260208101905061104e565b60008484015250505050565b6000601f19601f8301169050919050565b60006110918261102f565b61109b818561103a565b93506110ab81856020860161104b565b6110b481611075565b840191505092915050565b7f4e487b7100000000000000000000000000000000000000000000000000000000600052602160045260246000fd5b600481106110ff576110fe6110bf565b5b50565b6000819050611110826110ee565b919050565b600061112082611102565b9050919050565b61113081611115565b82525050565b600060608201905081810360008301526111508186611086565b905081810360208301526111648185611086565b90506111736040830184611127565b949350505050565b6000819050919050565b61118e8161117b565b811461119957600080fd5b50565b6000813590506111ab81611185565b92915050565b6000602082840312156111c7576111c6610e54565b5b60006111d58482850161119c565b91505092915050565b6111e781610f64565b82525050565b600060208201905061120260008301846111de565b92915050565b60008115159050919050565b61121d81611208565b82525050565b60006020820190506112386000830184611214565b92915050565b600060808201905081810360008301526112588187611086565b9050818103602083015261126c8186611086565b905061127b6040830185611127565b61128860608301846111de565b95945050505050565b600081519050919050565b600082825260208201905092915050565b6000819050602082019050919050565b6112c681610f64565b82525050565b60006112d883836112bd565b60208301905092915050565b6000602082019050919050565b60006112fc82611291565b611306818561129c565b9350611311836112ad565b8060005b8381101561134257815161132988826112cc565b9750611334836112e4565b925050600181019050611315565b5085935050505092915050565b6000602082019050818103600083015261136981846112f1565b905092915050565b7f416c72656164792070656e64696e670000000000000000000000000000000000600082015250565b60006113a7600f8361103a565b91506113b282611371565b602082019050919050565b600060208201905081810360008301526113d68161139a565b9050919050565b7f416c726561647920617070726f76656400000000000000000000000000000000600082015250565b600061141360108361103a565b915061141e826113dd565b602082019050919050565b6000602082019050818103600083015261144281611406565b9050919050565b7f4e487b7100000000000000000000000000000000000000000000000000000000600052604160045260246000fd5b7f4e487b7100000000000000000000000000000000000000000000000000000000600052602260045260246000fd5b600060028204905060018216806114bf57607f821691505b6020821081036114d2576114d1611478565b5b50919050565b60008190508160005260206000209050919050565b60006020601f8301049050919050565b600082821b905092915050565b60006008830261153a7fffffffffffffffffffffffffffffffffffffffffffffffffffffffffffffffff826114fd565b61154486836114fd565b95508019841693508086168417925050509392505050565b6000819050919050565b600061158161157c6115778461117b565b61155c565b61117b565b9050919050565b6000819050919050565b61159b83611566565b6115af6115a782611588565b84845461150a565b825550505050565b600090565b6115c46115b7565b6115cf818484611592565b505050565b5b818110156115f3576115e86000826115bc565b6001810190506115d5565b5050565b601f82111561163857611609816114d8565b611612846114ed565b81016020851015611621578190505b61163561162d856114ed565b8301826115d4565b50505b505050565b600082821c905092915050565b600061165b6000198460080261163d565b1980831691505092915050565b6000611674838361164a565b9150826002028217905092915050565b61168d8261102f565b67ffffffffffffffff8111156116a6576116a5611449565b5b6116b082546114a7565b6116bb8282856115f7565b600060209050601f8311600181146116ee57600084156116dc578287015190505b6116e68582611668565b86555061174e565b601f1984166116fc866114d8565b60005b82811015611724578489015182556001820191506020850194506020810190506116ff565b86831015611741578489015161173d601f89168261164a565b8355505b6001600288020188555050505b505050505050565b82818337600083830152505050565b6000611771838561103a565b935061177e838584611756565b61178783611075565b840190509392505050565b600060408201905081810360008301526117ad818688611765565b905081810360208301526117c2818486611765565b905095945050505050565b7f4f6e6c792061646d696e00000000000000000000000000000000000000000000600082015250565b6000611803600a8361103a565b915061180e826117cd565b602082019050919050565b60006020820190508181036000830152611832816117f6565b9050919050565b7f4e6f742070656e64696e67000000000000000000000000000000000000000000600082015250565b600061186f600b8361103a565b915061187a82611839565b602082019050919050565b6000602082019050818103600083015261189e81611862565b9050919050565b600060208201905081810360008301526118c0818486611765565b90509392505050565b600082905092915050565b6118de83836118c9565b67ffffffffffffffff8111156118f7576118f6611449565b5b61190182546114a7565b61190c8282856115f7565b6000601f83116001811461193b5760008415611929578287013590505b6119338582611668565b86555061199b565b601f198416611949866114d8565b60005b828110156119715784890135825560018201915060208501945060208101905061194c565b8683101561198e578489013561198a601f89168261164a565b8355505b6001600288020188555050505b5050505050505056fea26469706673582212208460430ddf5e307908a523c0076443cc2239468b5cb92c8284e83e34e449b15164736f6c63430008120033",
  "linkReferences": {},
  "deployedLinkReferences": {}
}