{
  "_format": "hh-sol-artifact-1",
  "contractName": "Crowdfunding_FarisAli",
  "sourceName": "contracts/Crowdfunding_FarisAli.sol",
  "abi": [
    {
      "inputs": [
        {
          "internalType": "address",
          "name": "_kycRegistry",
          "type": "address"
        }
      ],
      "stateMutability": "nonpayable",
      "type": "constructor"
    },
    {
      "anonymous": false,
      "inputs": [
        {
          "indexed": true,
          "internalType": "uint256",
          "name": "id",
          "type": "uint256"
        }
      ],
      "name": "CampaignCompleted",
      "type": "event"
    },
    {
      "anonymous": false,
      "inputs": [
        {
          "indexed": true,
          "internalType": "uint256",
          "name": "id",
          "type": "uint256"
        },
        {
          "indexed": true,
          "internalType": "address",
          "name": "creator",
          "type": "address"
        },
        {
          "indexed": false,
          "internalType": "string",
          "name": "title",
          "type": "string"
        },
        {
          "indexed": false,
          "internalType": "uint256",
          "name": "goal",
          "type": "uint256"
        }
      ],
      "name": "CampaignCreated",
      "type": "event"
    },
    {
      "anonymous": false,
      "inputs": [
        {
          "indexed": true,
          "internalType": "uint256",
          "name": "id",
          "type": "uint256"
        },
        {
          "indexed": true,
          "internalType": "address",
          "name": "contributor",
          "type": "address"
        },
        {
          "indexed": false,
          "internalType": "uint256",
          "name": "amount",
          "type": "uint256"
        }
      ],
      "name": "Contributed",
      "type": "event"
    },
    {
      "anonymous": false,
      "inputs": [
        {
          "indexed": true,
          "internalType": "uint256",
          "name": "id",
          "type": "uint256"
        },
        {
          "indexed": true,
          "internalType": "address",
          "name": "creator",
          "type": "address"
        },
        {
          "indexed": false,
          "internalType": "uint256",
          "name": "amount",
          "type": "uint256"
        }
      ],
      "name": "Withdrawn",
      "type": "event"
    },
    {
      "inputs": [],
      "name": "admin",
      "outputs": [
        {
          "internalType": "address",
          "name": "",
          "type": "address"
        }
      ],
      "stateMutability": "view",
      "type": "function"
    },
    {
      "inputs": [
        {
          "internalType": "uint256",
          "name": "",
          "type": "uint256"
        }
      ],
      "name": "campaignIds",
      "outputs": [
        {
          "internalType": "uint256",
          "name": "",
          "type": "uint256"
        }
      ],
      "stateMutability": "view",
      "type": "function"
    },
    {
      "inputs": [
        {
          "internalType": "uint256",
          "name": "",
          "type": "uint256"
        }
      ],
      "name": "campaigns",
      "outputs": [
        {
          "internalType": "uint256",
          "name": "id",
          "type": "uint256"
        },
        {
          "internalType": "address",
          "name": "creator",
          "type": "address"
        },
        {
          "internalType": "string",
          "name": "title",
          "type": "string"
        },
        {
          "internalType": "string",
          "name": "description",
          "type": "string"
        },
        {
          "internalType": "uint256",
          "name": "goal",
          "type": "uint256"
        },
        {
          "internalType": "uint256",
          "name": "fundsRaised",
          "type": "uint256"
        },
        {
          "internalType": "enum Crowdfunding_FarisAli.Status",
          "name": "status",
          "type": "uint8"
        }
      ],
      "stateMutability": "view",
      "type": "function"
    },
    {
      "inputs": [
        {
          "internalType": "uint256",
          "name": "campaignId",
          "type": "uint256"
        }
      ],
      "name": "contribute",
      "outputs": [],
      "stateMutability": "payable",
      "type": "function"
    },
    {
      "inputs": [
        {
          "internalType": "uint256",
          "name": "",
          "type": "uint256"
        },
        {
          "internalType": "address",
          "name": "",
          "type": "address"
        }
      ],
      "name": "contributions",
      "outputs": [
        {
          "internalType": "uint256",
          "name": "",
          "type": "uint256"
        }
      ],
      "stateMutability": "view",
      "type": "function"
    },
    {
      "inputs": [
        {
          "internalType": "string",
          "name": "title",
          "type": "string"
        },
        {
          "internalType": "string",
          "name": "description",
          "type": "string"
        },
        {
          "internalType": "uint256",
          "name": "goalInWei",
          "type": "uint256"
        }
      ],
      "name": "createCampaign",
      "outputs": [],
      "stateMutability": "nonpayable",
      "type": "function"
    },
    {
      "inputs": [
        {
          "internalType": "uint256",
          "name": "cid",
          "type": "uint256"
        }
      ],
      "name": "getCampaign",
      "outputs": [
        {
          "internalType": "uint256",
          "name": "id",
          "type": "uint256"
        },
        {
          "internalType": "address",
          "name": "creator",
          "type": "address"
        },
        {
          "internalType": "string",
          "name": "title",
          "type": "string"
        },
        {
          "internalType": "string",
          "name": "description",
          "type": "string"
        },
        {
          "internalType": "uint256",
          "name": "goal",
          "type": "uint256"
        },
        {
          "internalType": "uint256",
          "name": "fundsRaised",
          "type": "uint256"
        },
        {
          "internalType": "enum Crowdfunding_FarisAli.Status",
          "name": "status",
          "type": "uint8"
        }
      ],
      "stateMutability": "view",
      "type": "function"
    },
    {
      "inputs": [],
      "name": "getCampaignIds",
      "outputs": [
        {
          "internalType": "uint256[]",
          "name": "",
          "type": "uint256[]"
        }
      ],
      "stateMutability": "view",
      "type": "function"
    },
    {
      "inputs": [],
      "name": "kycRegistry",
      "outputs": [
        {
          "internalType": "contract IKYCRegistry",
          "name": "",
          "type": "address"
        }
      ],
      "stateMutability": "view",
      "type": "function"
    },
    {
      "inputs": [],
      "name": "nextCampaignId",
      "outputs": [
        {
          "internalType": "uint256",
          "name": "",
          "type": "uint256"
        }
      ],
      "stateMutability": "view",
      "type": "function"
    },
    {
      "inputs": [],
      "name": "totalCampaigns",
      "outputs": [
        {
          "internalType": "uint256",
          "name": "",
          "type": "uint256"
        }
      ],
      "stateMutability": "view",
      "type": "function"
    },
    {
      "inputs": [
        {
          "internalType": "uint256",
          "name": "campaignId",
          "type": "uint256"
        }
      ],
      "name": "withdraw",
      "outputs": [],
      "stateMutability": "nonpayable",
      "type": "function"
    }
  ],
  "bytecode": "0x60806040523480156200001157600080fd5b5060405162001ee438038062001ee4833981810160405281019062000037919062000131565b806000806101000a81548173ffffffffffffffffffffffffffffffffffffffff021916908373ffffffffffffffffffffffffffffffffffffffff16021790555033600160006101000a81548173ffffffffffffffffffffffffffffffffffffffff021916908373ffffffffffffffffffffffffffffffffffffffff16021790555060016002819055505062000163565b600080fd5b600073ffffffffffffffffffffffffffffffffffffffff82169050919050565b6000620000f982620000cc565b9050919050565b6200010b81620000ec565b81146200011757600080fd5b50565b6000815190506200012b8162000100565b92915050565b6000602082840312156200014a5762000149620000c7565b5b60006200015a848285016200011a565b91505092915050565b611d7180620001736000396000f3fe6080604052600436106100a75760003560e01c80635598f8cc116100645780635598f8cc146101d65780637903a75614610219578063b369359d14610244578063c1cbbca714610281578063f851a4401461029d578063ffa56a57146102c8576100a7565b806302932f56146100ac578063141961bc146100d75780632e1a7d4d1461011a5780633d891f591461014357806347c9e8f6146101805780634b155b97146101ab575b600080fd5b3480156100b857600080fd5b506100c16102f1565b6040516100ce9190610ff6565b60405180910390f35b3480156100e357600080fd5b506100fe60048036038101906100f99190611047565b6102fe565b60405161011197969594939291906111bc565b60405180910390f35b34801561012657600080fd5b50610141600480360381019061013c9190611047565b61047d565b005b34801561014f57600080fd5b5061016a60048036038101906101659190611265565b610726565b6040516101779190610ff6565b60405180910390f35b34801561018c57600080fd5b5061019561074b565b6040516101a29190611363565b60405180910390f35b3480156101b757600080fd5b506101c06107a3565b6040516101cd91906113e4565b60405180910390f35b3480156101e257600080fd5b506101fd60048036038101906101f89190611047565b6107c7565b60405161021097969594939291906111bc565b60405180910390f35b34801561022557600080fd5b5061022e610968565b60405161023b9190610ff6565b60405180910390f35b34801561025057600080fd5b5061026b60048036038101906102669190611047565b61096e565b6040516102789190610ff6565b60405180910390f35b61029b60048036038101906102969190611047565b610992565b005b3480156102a957600080fd5b506102b2610bea565b6040516102bf91906113ff565b60405180910390f35b3480156102d457600080fd5b506102ef60048036038101906102ea919061147f565b610c10565b005b6000600480549050905090565b60036020528060005260406000206000915090508060000154908060010160009054906101000a900473ffffffffffffffffffffffffffffffffffffffff169080600201805461034d90611543565b80601f016020809104026020016040519081016040528092919081815260200182805461037990611543565b80156103c65780601f1061039b576101008083540402835291602001916103c6565b820191906000526020600020905b8154815290600101906020018083116103a957829003601f168201915b5050505050908060030180546103db90611543565b80601f016020809104026020016040519081016040528092919081815260200182805461040790611543565b80156104545780601f1061042957610100808354040283529160200191610454565b820191906000526020600020905b81548152906001019060200180831161043757829003601f168201915b5050505050908060040154908060050154908060060160009054906101000a900460ff16905087565b600060036000838152602001908152602001600020905060008160000154036104db576040517f08c379a00000000000000000000000000000000000000000000000000000000081526004016104d2906115c0565b60405180910390fd5b8060010160009054906101000a900473ffffffffffffffffffffffffffffffffffffffff1673ffffffffffffffffffffffffffffffffffffffff163373ffffffffffffffffffffffffffffffffffffffff161461056d576040517f08c379a00000000000000000000000000000000000000000000000000000000081526004016105649061162c565b60405180910390fd5b6001600281111561058157610580611145565b5b8160060160009054906101000a900460ff1660028111156105a5576105a4611145565b5b146105e5576040517f08c379a00000000000000000000000000000000000000000000000000000000081526004016105dc90611698565b60405180910390fd5b6000816005015490506000826005018190555060028260060160006101000a81548160ff021916908360028111156106205761061f611145565b5b021790555060003373ffffffffffffffffffffffffffffffffffffffff168260405161064b906116e9565b60006040518083038185875af1925050503d8060008114610688576040519150601f19603f3d011682016040523d82523d6000602084013e61068d565b606091505b50509050806106d1576040517f08c379a00000000000000000000000000000000000000000000000000000000081526004016106c89061174a565b60405180910390fd5b3373ffffffffffffffffffffffffffffffffffffffff16847fcf7d23a3cbe4e8b36ff82fd1b05b1b17373dc7804b4ebbd6e2356716ef202372846040516107189190610ff6565b60405180910390a350505050565b6005602052816000526040600020602052806000526040600020600091509150505481565b6060600480548060200260200160405190810160405280929190818152602001828054801561079957602002820191906000526020600020905b815481526020019060010190808311610785575b5050505050905090565b60008054906101000a900473ffffffffffffffffffffffffffffffffffffffff1681565b600080606080600080600080600360008a8152602001908152602001600020905080600001548160010160009054906101000a900473ffffffffffffffffffffffffffffffffffffffff168260020183600301846004015485600501548660060160009054906101000a900460ff1684805461084290611543565b80601f016020809104026020016040519081016040528092919081815260200182805461086e90611543565b80156108bb5780601f10610890576101008083540402835291602001916108bb565b820191906000526020600020905b81548152906001019060200180831161089e57829003601f168201915b505050505094508380546108ce90611543565b80601f01602080910402602001604051908101604052809291908181526020018280546108fa90611543565b80156109475780601f1061091c57610100808354040283529160200191610947565b820191906000526020600020905b81548152906001019060200180831161092a57829003601f168201915b50505050509350975097509750975097509750975050919395979092949650565b60025481565b6004818154811061097e57600080fd5b906000526020600020016000915090505481565b600060036000838152602001908152602001600020905060008160000154036109f0576040517f08c379a00000000000000000000000000000000000000000000000000000000081526004016109e7906115c0565b60405180910390fd5b60006002811115610a0457610a03611145565b5b8160060160009054906101000a900460ff166002811115610a2857610a27611145565b5b14610a68576040517f08c379a0000000000000000000000000000000000000000000000000000000008152600401610a5f906117b6565b60405180910390fd5b60003411610aab576040517f08c379a0000000000000000000000000000000000000000000000000000000008152600401610aa290611822565b60405180910390fd5b34816005016000828254610abf9190611871565b92505081905550346005600084815260200190815260200160002060003373ffffffffffffffffffffffffffffffffffffffff1673ffffffffffffffffffffffffffffffffffffffff1681526020019081526020016000206000828254610b269190611871565b925050819055503373ffffffffffffffffffffffffffffffffffffffff16827fb2ed2e021651f85a4754a44651fc09ac5141bc0329ce4dfe8dd712a5d04a8b3934604051610b749190610ff6565b60405180910390a38060040154816005015410610be65760018160060160006101000a81548160ff02191690836002811115610bb357610bb2611145565b5b0217905550817fbdef6a2e3aa892961a2dab48272f72f2bc1c7121eb1c0ed7e4a58e081c1e4be060405160405180910390a25b5050565b600160009054906101000a900473ffffffffffffffffffffffffffffffffffffffff1681565b600160009054906101000a900473ffffffffffffffffffffffffffffffffffffffff1673ffffffffffffffffffffffffffffffffffffffff163373ffffffffffffffffffffffffffffffffffffffff1614610d3f5760008054906101000a900473ffffffffffffffffffffffffffffffffffffffff1673ffffffffffffffffffffffffffffffffffffffff1663673448dd336040518263ffffffff1660e01b8152600401610cbe91906113ff565b602060405180830381865afa158015610cdb573d6000803e3d6000fd5b505050506040513d601f19601f82011682018060405250810190610cff91906118dd565b610d3e576040517f08c379a0000000000000000000000000000000000000000000000000000000008152600401610d3590611956565b60405180910390fd5b5b60008111610d82576040517f08c379a0000000000000000000000000000000000000000000000000000000008152600401610d79906119c2565b60405180910390fd5b600060026000815480929190610d97906119e2565b9190505590506040518060e001604052808281526020013373ffffffffffffffffffffffffffffffffffffffff16815260200187878080601f016020809104026020016040519081016040528093929190818152602001838380828437600081840152601f19601f82011690508083019250505050505050815260200185858080601f016020809104026020016040519081016040528093929190818152602001838380828437600081840152601f19601f8201169050808301925050505050505081526020018381526020016000815260200160006002811115610e7f57610e7e611145565b5b815250600360008381526020019081526020016000206000820151816000015560208201518160010160006101000a81548173ffffffffffffffffffffffffffffffffffffffff021916908373ffffffffffffffffffffffffffffffffffffffff1602179055506040820151816002019081610efb9190611bfb565b506060820151816003019081610f119190611bfb565b506080820151816004015560a0820151816005015560c08201518160060160006101000a81548160ff02191690836002811115610f5157610f50611145565b5b021790555090505060048190806001815401808255809150506001900390600052602060002001600090919091909150553373ffffffffffffffffffffffffffffffffffffffff16817f825fb10f7650ed27414d6f86acdf7d5946927d9b25001f045f1a2435deec02fe888886604051610fcd93929190611d09565b60405180910390a3505050505050565b6000819050919050565b610ff081610fdd565b82525050565b600060208201905061100b6000830184610fe7565b92915050565b600080fd5b600080fd5b61102481610fdd565b811461102f57600080fd5b50565b6000813590506110418161101b565b92915050565b60006020828403121561105d5761105c611011565b5b600061106b84828501611032565b91505092915050565b600073ffffffffffffffffffffffffffffffffffffffff82169050919050565b600061109f82611074565b9050919050565b6110af81611094565b82525050565b600081519050919050565b600082825260208201905092915050565b60005b838110156110ef5780820151818401526020810190506110d4565b60008484015250505050565b6000601f19601f8301169050919050565b6000611117826110b5565b61112181856110c0565b93506111318185602086016110d1565b61113a816110fb565b840191505092915050565b7f4e487b7100000000000000000000000000000000000000000000000000000000600052602160045260246000fd5b6003811061118557611184611145565b5b50565b600081905061119682611174565b919050565b60006111a682611188565b9050919050565b6111b68161119b565b82525050565b600060e0820190506111d1600083018a610fe7565b6111de60208301896110a6565b81810360408301526111f0818861110c565b90508181036060830152611204818761110c565b90506112136080830186610fe7565b61122060a0830185610fe7565b61122d60c08301846111ad565b98975050505050505050565b61124281611094565b811461124d57600080fd5b50565b60008135905061125f81611239565b92915050565b6000806040838503121561127c5761127b611011565b5b600061128a85828601611032565b925050602061129b85828601611250565b9150509250929050565b600081519050919050565b600082825260208201905092915050565b6000819050602082019050919050565b6112da81610fdd565b82525050565b60006112ec83836112d1565b60208301905092915050565b6000602082019050919050565b6000611310826112a5565b61131a81856112b0565b9350611325836112c1565b8060005b8381101561135657815161133d88826112e0565b9750611348836112f8565b925050600181019050611329565b5085935050505092915050565b6000602082019050818103600083015261137d8184611305565b905092915050565b6000819050919050565b60006113aa6113a56113a084611074565b611385565b611074565b9050919050565b60006113bc8261138f565b9050919050565b60006113ce826113b1565b9050919050565b6113de816113c3565b82525050565b60006020820190506113f960008301846113d5565b92915050565b600060208201905061141460008301846110a6565b92915050565b600080fd5b600080fd5b600080fd5b60008083601f84011261143f5761143e61141a565b5b8235905067ffffffffffffffff81111561145c5761145b61141f565b5b60208301915083600182028301111561147857611477611424565b5b9250929050565b60008060008060006060868803121561149b5761149a611011565b5b600086013567ffffffffffffffff8111156114b9576114b8611016565b5b6114c588828901611429565b9550955050602086013567ffffffffffffffff8111156114e8576114e7611016565b5b6114f488828901611429565b9350935050604061150788828901611032565b9150509295509295909350565b7f4e487b7100000000000000000000000000000000000000000000000000000000600052602260045260246000fd5b6000600282049050600182168061155b57607f821691505b60208210810361156e5761156d611514565b5b50919050565b7f43616d706169676e206e6f7420666f756e640000000000000000000000000000600082015250565b60006115aa6012836110c0565b91506115b582611574565b602082019050919050565b600060208201905081810360008301526115d98161159d565b9050919050565b7f4f6e6c792063726561746f722063616e20776974686472617700000000000000600082015250565b60006116166019836110c0565b9150611621826115e0565b602082019050919050565b6000602082019050818103600083015261164581611609565b9050919050565b7f43616d706169676e206e6f7420636f6d706c6574656400000000000000000000600082015250565b60006116826016836110c0565b915061168d8261164c565b602082019050919050565b600060208201905081810360008301526116b181611675565b9050919050565b600081905092915050565b50565b60006116d36000836116b8565b91506116de826116c3565b600082019050919050565b60006116f4826116c6565b9150819050919050565b7f5769746864726177206661696c65640000000000000000000000000000000000600082015250565b6000611734600f836110c0565b915061173f826116fe565b602082019050919050565b6000602082019050818103600083015261176381611727565b9050919050565b7f43616d706169676e206e6f742061637469766500000000000000000000000000600082015250565b60006117a06013836110c0565b91506117ab8261176a565b602082019050919050565b600060208201905081810360008301526117cf81611793565b9050919050565b7f4d7573742073656e642045544800000000000000000000000000000000000000600082015250565b600061180c600d836110c0565b9150611817826117d6565b602082019050919050565b6000602082019050818103600083015261183b816117ff565b9050919050565b7f4e487b7100000000000000000000000000000000000000000000000000000000600052601160045260246000fd5b600061187c82610fdd565b915061188783610fdd565b925082820190508082111561189f5761189e611842565b5b92915050565b60008115159050919050565b6118ba816118a5565b81146118c557600080fd5b50565b6000815190506118d7816118b1565b92915050565b6000602082840312156118f3576118f2611011565b5b6000611901848285016118c8565b91505092915050565b7f4e6f74204b594320766572696669656400000000000000000000000000000000600082015250565b60006119406010836110c0565b915061194b8261190a565b602082019050919050565b6000602082019050818103600083015261196f81611933565b9050919050565b7f476f616c206d757374206265203e203000000000000000000000000000000000600082015250565b60006119ac6010836110c0565b91506119b782611976565b602082019050919050565b600060208201905081810360008301526119db8161199f565b9050919050565b60006119ed82610fdd565b91507fffffffffffffffffffffffffffffffffffffffffffffffffffffffffffffffff8203611a1f57611a1e611842565b5b600182019050919050565b7f4e487b7100000000000000000000000000000000000000000000000000000000600052604160045260246000fd5b60008190508160005260206000209050919050565b60006020601f8301049050919050565b600082821b905092915050565b600060088302611abb7fffffffffffffffffffffffffffffffffffffffffffffffffffffffffffffffff82611a7e565b611ac58683611a7e565b95508019841693508086168417925050509392505050565b6000611af8611af3611aee84610fdd565b611385565b610fdd565b9050919050565b6000819050919050565b611b1283611add565b611b26611b1e82611aff565b848454611a8b565b825550505050565b600090565b611b3b611b2e565b611b46818484611b09565b505050565b5b81811015611b6a57611b5f600082611b33565b600181019050611b4c565b5050565b601f821115611baf57611b8081611a59565b611b8984611a6e565b81016020851015611b98578190505b611bac611ba485611a6e565b830182611b4b565b50505b505050565b600082821c905092915050565b6000611bd260001984600802611bb4565b1980831691505092915050565b6000611beb8383611bc1565b9150826002028217905092915050565b611c04826110b5565b67ffffffffffffffff811115611c1d57611c1c611a2a565b5b611c278254611543565b611c32828285611b6e565b600060209050601f831160018114611c655760008415611c53578287015190505b611c5d8582611bdf565b865550611cc5565b601f198416611c7386611a59565b60005b82811015611c9b57848901518255600182019150602085019450602081019050611c76565b86831015611cb85784890151611cb4601f891682611bc1565b8355505b6001600288020188555050505b505050505050565b82818337600083830152505050565b6000611ce883856110c0565b9350611cf5838584611ccd565b611cfe836110fb565b840190509392505050565b60006040820190508181036000830152611d24818587611cdc565b9050611d336020830184610fe7565b94935050505056fea2646970667358221220830c37cf72aa718863af34e893964ba1e0eb1291728071cde56ae2313348c3ce64736f6c63430008120033",
  "linkReferences": {},
  "deployedLinkReferences": {}
}